{
  "transactions": [
    {
      "hash": "0xcdd2fa83a6815e551504c33be95c7577bd36d81ee17b573c0bffd3fc70ab4a8e",
      "transactionType": "CALL",
      "contractName": null,
      "contractAddress": "0x8d7f20137041334fbd7c87796f03b1999770cc5f",
      "function": "approve(address,uint256)",
      "arguments": [
        "0x000000000022D473030F116dDEE9F6B43aC78BA3",
        "115792089237316195423570985008687907853269984665640564039457584007913129639935"
      ],
      "transaction": {
        "from": "0xad0f3f4bec42cda68d2cd31301b3c3de3b0f50e2",
        "to": "0x8d7f20137041334fbd7c87796f03b1999770cc5f",
        "gas": "0x10a74",
        "value": "0x0",
        "input": "0x095ea7b3000000000000000000000000000000000022d473030f116ddee9f6b43ac78ba3ffffffffffffffffffffffffffffffffffffffffffffffffffffffffffffffff",
        "nonce": "0xf",
        "chainId": "0xaa36a7"
      },
      "additionalContracts": [],
      "isFixedGasLimit": false
    },
    {
      "hash": "0x3f2af245e039e1f2daa0be2e10ff4a0e4003243bcae8a0e2f53d63cde8477249",
      "transactionType": "CALL",
      "contractName": null,
      "contractAddress": "0x000000000022d473030f116ddee9f6b43ac78ba3",
      "function": "approve(address,address,uint160,uint48)",
      "arguments": [
        "0x8d7F20137041334FBd7c87796f03b1999770Cc5f",
        "0x429ba70129df741B2Ca2a85BC3A2a3328e5c09b4",
        "1461501637330902918203684832716283019655932542975",
        "281474976710655"
      ],
      "transaction": {
        "from": "0xad0f3f4bec42cda68d2cd31301b3c3de3b0f50e2",
        "to": "0x000000000022d473030f116ddee9f6b43ac78ba3",
        "gas": "0x1112d",
        "value": "0x0",
        "input": "0x87517c450000000000000000000000008d7f20137041334fbd7c87796f03b1999770cc5f000000000000000000000000429ba70129df741b2ca2a85bc3a2a3328e5c09b4000000000000000000000000ffffffffffffffffffffffffffffffffffffffff0000000000000000000000000000000000000000000000000000ffffffffffff",
        "nonce": "0x10",
        "chainId": "0xaa36a7"
      },
      "additionalContracts": [],
      "isFixedGasLimit": false
    },
    {
      "hash": "0x548aa97451dbfe14e7f39dfd539e7d555462e1de32ff48ed21e5fa3d5fcadda3",
      "transactionType": "CALL",
      "contractName": null,
      "contractAddress": "0x429ba70129df741b2ca2a85bc3a2a3328e5c09b4",
      "function": "modifyLiquidities(bytes,uint256)",
      "arguments": [
        "0x000000000000000000000000000000000000000000000000000000000000004000000000000000000000000000000000000000000000000000000000000000800000000000000000000000000000000000000000000000000000000000000002020d00000000000000000000000000000000000000000000000000000000000000000000000000000000000000000000000000000000000000000000000000020000000000000000000000000000000000000000000000000000000000000040000000000000000000000000000000000000000000000000000000000000020000000000000000000000000000000000000000000000000000000000000001a000000000000000000000000000000000000000000000000000000000000000000000000000000000000000008d7f20137041334fbd7c87796f03b1999770cc5f0000000000000000000000000000000000000000000000000000000000800000000000000000000000000000000000000000000000000000000000000000003c000000000000000000000000d9be8bb0c5fa892f1ec89e66608d6b9865d65080fffffffffffffffffffffffffffffffffffffffffffffffffffffffffffffda800000000000000000000000000000000000000000000000000000000000002580000000000000000000000000000000000000000000000001a58f82633391a42000000000000000000000000000000000000000000000000016345785d8a0001000000000000000000000000000000000000000000000000016345785d8a0001000000000000000000000000ad0f3f4bec42cda68d2cd31301b3c3de3b0f50e200000000000000000000000000000000000000000000000000000000000001800000000000000000000000000000000000000000000000000000000000000000000000000000000000000000000000000000000000000000000000000000004000000000000000000000000000000000000000000000000000000000000000000000000000000000000000008d7f20137041334fbd7c87796f03b1999770cc5f",
        "1745425776"
      ],
      "transaction": {
        "from": "0xad0f3f4bec42cda68d2cd31301b3c3de3b0f50e2",
        "to": "0x429ba70129df741b2ca2a85bc3a2a3328e5c09b4",
        "gas": "0x8229c",
        "value": "0x16345785d8a0001",
        "input": "0xdd46508f000000000000000000000000000000000000000000000000000000000000004000000000000000000000000000000000000000000000000000000000680915700000000000000000000000000000000000000000000000000000000000000300000000000000000000000000000000000000000000000000000000000000004000000000000000000000000000000000000000000000000000000000000000800000000000000000000000000000000000000000000000000000000000000002020d00000000000000000000000000000000000000000000000000000000000000000000000000000000000000000000000000000000000000000000000000020000000000000000000000000000000000000000000000000000000000000040000000000000000000000000000000000000000000000000000000000000020000000000000000000000000000000000000000000000000000000000000001a000000000000000000000000000000000000000000000000000000000000000000000000000000000000000008d7f20137041334fbd7c87796f03b1999770cc5f0000000000000000000000000000000000000000000000000000000000800000000000000000000000000000000000000000000000000000000000000000003c000000000000000000000000d9be8bb0c5fa892f1ec89e66608d6b9865d65080fffffffffffffffffffffffffffffffffffffffffffffffffffffffffffffda800000000000000000000000000000000000000000000000000000000000002580000000000000000000000000000000000000000000000001a58f82633391a42000000000000000000000000000000000000000000000000016345785d8a0001000000000000000000000000000000000000000000000000016345785d8a0001000000000000000000000000ad0f3f4bec42cda68d2cd31301b3c3de3b0f50e200000000000000000000000000000000000000000000000000000000000001800000000000000000000000000000000000000000000000000000000000000000000000000000000000000000000000000000000000000000000000000000004000000000000000000000000000000000000000000000000000000000000000000000000000000000000000008d7f20137041334fbd7c87796f03b1999770cc5f",
        "nonce": "0x11",
        "chainId": "0xaa36a7"
      },
      "additionalContracts": [],
      "isFixedGasLimit": false
    }
  ],
  "receipts": [
    {
      "status": "0x1",
      "cumulativeGasUsed": "0xd5f875",
      "logs": [
        {
          "address": "0x8d7f20137041334fbd7c87796f03b1999770cc5f",
          "topics": [
            "0x8c5be1e5ebec7d5bd14f71427d1e84f3dd0314c0f7b2291e5b200ac8c7c3b925",
            "0x000000000000000000000000ad0f3f4bec42cda68d2cd31301b3c3de3b0f50e2",
            "0x000000000000000000000000000000000022d473030f116ddee9f6b43ac78ba3"
          ],
          "data": "0xffffffffffffffffffffffffffffffffffffffffffffffffffffffffffffffff",
          "blockHash": "0x320f6bdaf13493fc2bb71e7c9d88a689bf2aa4e6a3c8a49235f50794ca2b840a",
          "blockNumber": "0x7cd217",
          "blockTimestamp": "0x6809154c",
          "transactionHash": "0xcdd2fa83a6815e551504c33be95c7577bd36d81ee17b573c0bffd3fc70ab4a8e",
          "transactionIndex": "0x52",
          "logIndex": "0x8f",
          "removed": false
        }
      ],
      "logsBloom": "0x00000000000000000400000000000000000000000000000000000000000000000000000000000000000000000000000000000000800000000000000000200000000000000000000000004000000000000000000000000800000000000000000000000000000000000000000000000000000000000100000000000000000040000000000000000000000000000000000000000000000000000000000000000000020000000000000000000000000000000000000000000000000000000000000000000000000000000000000000000004000000000000000000000000000000000010000000000000080000000000000000000000000000000002000000000000",
      "type": "0x2",
      "transactionHash": "0xcdd2fa83a6815e551504c33be95c7577bd36d81ee17b573c0bffd3fc70ab4a8e",
      "transactionIndex": "0x52",
      "blockHash": "0x320f6bdaf13493fc2bb71e7c9d88a689bf2aa4e6a3c8a49235f50794ca2b840a",
      "blockNumber": "0x7cd217",
      "gasUsed": "0xb631",
      "effectiveGasPrice": "0x70ca14198",
      "from": "0xad0f3f4bec42cda68d2cd31301b3c3de3b0f50e2",
      "to": "0x8d7f20137041334fbd7c87796f03b1999770cc5f",
      "contractAddress": null
    },
    {
      "status": "0x1",
      "cumulativeGasUsed": "0xd6b33f",
      "logs": [
        {
          "address": "0x000000000022d473030f116ddee9f6b43ac78ba3",
          "topics": [
            "0xda9fa7c1b00402c17d0161b249b1ab8bbec047c5a52207b9c112deffd817036b",
            "0x000000000000000000000000ad0f3f4bec42cda68d2cd31301b3c3de3b0f50e2",
            "0x0000000000000000000000008d7f20137041334fbd7c87796f03b1999770cc5f",
            "0x000000000000000000000000429ba70129df741b2ca2a85bc3a2a3328e5c09b4"
          ],
          "data": "0x000000000000000000000000ffffffffffffffffffffffffffffffffffffffff0000000000000000000000000000000000000000000000000000ffffffffffff",
          "blockHash": "0x320f6bdaf13493fc2bb71e7c9d88a689bf2aa4e6a3c8a49235f50794ca2b840a",
          "blockNumber": "0x7cd217",
          "blockTimestamp": "0x6809154c",
          "transactionHash": "0x3f2af245e039e1f2daa0be2e10ff4a0e4003243bcae8a0e2f53d63cde8477249",
          "transactionIndex": "0x53",
          "logIndex": "0x90",
          "removed": false
        }
      ],
      "logsBloom": "0x00010000000000000000000000000000000000000000000000000000000000000000000000000040080000000000010000000000000000000000000000080000000040000000000080000000000000000000000000000000000000000000000000000000000000000000000000000000000000000100000000000800000000000020000000000000000000000000000000000000000000000000000000000000000000000000000000000000000000000000000000000000000000080000000000000000000000000000000000000004000000000000000040000000000000000000000000000000000000000000000000000000000000000002000000000400",
      "type": "0x2",
      "transactionHash": "0x3f2af245e039e1f2daa0be2e10ff4a0e4003243bcae8a0e2f53d63cde8477249",
      "transactionIndex": "0x53",
      "blockHash": "0x320f6bdaf13493fc2bb71e7c9d88a689bf2aa4e6a3c8a49235f50794ca2b840a",
      "blockNumber": "0x7cd217",
      "gasUsed": "0xbaca",
      "effectiveGasPrice": "0x70ca14198",
      "from": "0xad0f3f4bec42cda68d2cd31301b3c3de3b0f50e2",
      "to": "0x000000000022d473030f116ddee9f6b43ac78ba3",
      "contractAddress": null
    },
    {
      "status": "0x1",
      "cumulativeGasUsed": "0xdc9705",
      "logs": [
        {
          "address": "0x429ba70129df741b2ca2a85bc3a2a3328e5c09b4",
          "topics": [
            "0xddf252ad1be2c89b69c2b068fc378daa952ba7f163c4a11628f55a4df523b3ef",
            "0x0000000000000000000000000000000000000000000000000000000000000000",
            "0x000000000000000000000000ad0f3f4bec42cda68d2cd31301b3c3de3b0f50e2",
            "0x0000000000000000000000000000000000000000000000000000000000002dc1"
          ],
          "data": "0x",
          "blockHash": "0x320f6bdaf13493fc2bb71e7c9d88a689bf2aa4e6a3c8a49235f50794ca2b840a",
          "blockNumber": "0x7cd217",
          "blockTimestamp": "0x6809154c",
          "transactionHash": "0x548aa97451dbfe14e7f39dfd539e7d555462e1de32ff48ed21e5fa3d5fcadda3",
          "transactionIndex": "0x54",
          "logIndex": "0x91",
          "removed": false
        },
        {
          "address": "0xe03a1074c86cfedd5c142c4f04f1a1536e203543",
          "topics": [
            "0xf208f4912782fd25c7f114ca3723a2d5dd6f3bcc3ac8db5af63baa85f711d5ec",
            "0xc1fcb31353e0b2ea80c7b901570ee535074df25fe49d9fb4179117380855cb73",
            "0x000000000000000000000000429ba70129df741b2ca2a85bc3a2a3328e5c09b4"
          ],
          "data": "0xfffffffffffffffffffffffffffffffffffffffffffffffffffffffffffffda800000000000000000000000000000000000000000000000000000000000002580000000000000000000000000000000000000000000000001a58f82633391a420000000000000000000000000000000000000000000000000000000000002dc1",
          "blockHash": "0x320f6bdaf13493fc2bb71e7c9d88a689bf2aa4e6a3c8a49235f50794ca2b840a",
          "blockNumber": "0x7cd217",
          "blockTimestamp": "0x6809154c",
          "transactionHash": "0x548aa97451dbfe14e7f39dfd539e7d555462e1de32ff48ed21e5fa3d5fcadda3",
          "transactionIndex": "0x54",
          "logIndex": "0x92",
          "removed": false
        },
        {
          "address": "0x8d7f20137041334fbd7c87796f03b1999770cc5f",
          "topics": [
            "0xddf252ad1be2c89b69c2b068fc378daa952ba7f163c4a11628f55a4df523b3ef",
            "0x000000000000000000000000ad0f3f4bec42cda68d2cd31301b3c3de3b0f50e2",
            "0x000000000000000000000000e03a1074c86cfedd5c142c4f04f1a1536e203543"
          ],
          "data": "0x000000000000000000000000000000000000000000000000002eebabe1fba165",
          "blockHash": "0x320f6bdaf13493fc2bb71e7c9d88a689bf2aa4e6a3c8a49235f50794ca2b840a",
          "blockNumber": "0x7cd217",
          "blockTimestamp": "0x6809154c",
          "transactionHash": "0x548aa97451dbfe14e7f39dfd539e7d555462e1de32ff48ed21e5fa3d5fcadda3",
          "transactionIndex": "0x54",
          "logIndex": "0x93",
          "removed": false
        }
      ],
      "logsBloom": "0x00000000000000000400001000000000000000800000000000000000080000100000000000000040080000000000000000000100000000000000000000000000000000200000000000000008000000000000000000000400000000000000000000000000020000000000000080000800000000000100100000000810000040000000000001000000000010000000000000001000000000000000000000000000000004000000000000000000000000000000000000400000000000000000000000000002000000000000000000000004000000000000000000001000000020001000000000000000080000000000000004000008000000000002000000000000",
      "type": "0x2",
      "transactionHash": "0x548aa97451dbfe14e7f39dfd539e7d555462e1de32ff48ed21e5fa3d5fcadda3",
      "transactionIndex": "0x54",
      "blockHash": "0x320f6bdaf13493fc2bb71e7c9d88a689bf2aa4e6a3c8a49235f50794ca2b840a",
      "blockNumber": "0x7cd217",
      "gasUsed": "0x5e3c6",
      "effectiveGasPrice": "0x70ca14198",
      "from": "0xad0f3f4bec42cda68d2cd31301b3c3de3b0f50e2",
      "to": "0x429ba70129df741b2ca2a85bc3a2a3328e5c09b4",
      "contractAddress": null
    }
  ],
  "libraries": [],
  "pending": [],
  "returns": {},
  "timestamp": 1745425741,
  "chain": 11155111,
  "commit": "fa00cee"
}