{
  "transactions": [
    {
      "hash": "0xdd1f4f6c81af4f5729de267b0a18e39d7c939ae19225ffda498427ed7c619983",
      "transactionType": "CALL",
      "contractName": null,
      "contractAddress": "0x8d7f20137041334fbd7c87796f03b1999770cc5f",
      "function": "approve(address,uint256)",
      "arguments": [
        "0x000000000022D473030F116dDEE9F6B43aC78BA3",
        "115792089237316195423570985008687907853269984665640564039457584007913129639935"
      ],
      "transaction": {
        "from": "0xad0f3f4bec42cda68d2cd31301b3c3de3b0f50e2",
        "to": "0x8d7f20137041334fbd7c87796f03b1999770cc5f",
        "gas": "0x9047",
        "value": "0x0",
        "input": "0x095ea7b3000000000000000000000000000000000022d473030f116ddee9f6b43ac78ba3ffffffffffffffffffffffffffffffffffffffffffffffffffffffffffffffff",
        "nonce": "0x12",
        "chainId": "0xaa36a7"
      },
      "additionalContracts": [],
      "isFixedGasLimit": false
    },
    {
      "hash": "0xa6cd996759449245007666dbe3b8731c0ac46a309e978d162a5e0d2a30428954",
      "transactionType": "CALL",
      "contractName": null,
      "contractAddress": "0x000000000022d473030f116ddee9f6b43ac78ba3",
      "function": "approve(address,address,uint160,uint48)",
      "arguments": [
        "0x8d7F20137041334FBd7c87796f03b1999770Cc5f",
        "0x429ba70129df741B2Ca2a85BC3A2a3328e5c09b4",
        "1461501637330902918203684832716283019655932542975",
        "281474976710655"
      ],
      "transaction": {
        "from": "0xad0f3f4bec42cda68d2cd31301b3c3de3b0f50e2",
        "to": "0x000000000022d473030f116ddee9f6b43ac78ba3",
        "gas": "0x96a0",
        "value": "0x0",
        "input": "0x87517c450000000000000000000000008d7f20137041334fbd7c87796f03b1999770cc5f000000000000000000000000429ba70129df741b2ca2a85bc3a2a3328e5c09b4000000000000000000000000ffffffffffffffffffffffffffffffffffffffff0000000000000000000000000000000000000000000000000000ffffffffffff",
        "nonce": "0x13",
        "chainId": "0xaa36a7"
      },
      "additionalContracts": [],
      "isFixedGasLimit": false
    },
    {
      "hash": "0x6c4e73f101c48a43669ed1a06fbaf9b22ffb9345faa644fea35a5bd8e72f843f",
      "transactionType": "CALL",
      "contractName": null,
      "contractAddress": "0x429ba70129df741b2ca2a85bc3a2a3328e5c09b4",
      "function": "modifyLiquidities(bytes,uint256)",
      "arguments": [
        "0x000000000000000000000000000000000000000000000000000000000000004000000000000000000000000000000000000000000000000000000000000000800000000000000000000000000000000000000000000000000000000000000002020d00000000000000000000000000000000000000000000000000000000000000000000000000000000000000000000000000000000000000000000000000020000000000000000000000000000000000000000000000000000000000000040000000000000000000000000000000000000000000000000000000000000020000000000000000000000000000000000000000000000000000000000000001a000000000000000000000000000000000000000000000000000000000000000000000000000000000000000008d7f20137041334fbd7c87796f03b1999770cc5f0000000000000000000000000000000000000000000000000000000000800000000000000000000000000000000000000000000000000000000000000000003c000000000000000000000000d9be8bb0c5fa892f1ec89e66608d6b9865d65080fffffffffffffffffffffffffffffffffffffffffffffffffffffffffffffda8000000000000000000000000000000000000000000000000000000000000025800000000000000000000000000000000000000000000000a3067f6c5cf1527bb0000000000000000000000000000000000000000000000008963dd8c2c5e00010000000000000000000000000000000000000000000000008963dd8c2c5e0001000000000000000000000000ad0f3f4bec42cda68d2cd31301b3c3de3b0f50e200000000000000000000000000000000000000000000000000000000000001800000000000000000000000000000000000000000000000000000000000000000000000000000000000000000000000000000000000000000000000000000004000000000000000000000000000000000000000000000000000000000000000000000000000000000000000008d7f20137041334fbd7c87796f03b1999770cc5f",
        "1745425992"
      ],
      "transaction": {
        "from": "0xad0f3f4bec42cda68d2cd31301b3c3de3b0f50e2",
        "to": "0x429ba70129df741b2ca2a85bc3a2a3328e5c09b4",
        "gas": "0x46afc",
        "value": "0x8963dd8c2c5e0001",
        "input": "0xdd46508f000000000000000000000000000000000000000000000000000000000000004000000000000000000000000000000000000000000000000000000000680916480000000000000000000000000000000000000000000000000000000000000300000000000000000000000000000000000000000000000000000000000000004000000000000000000000000000000000000000000000000000000000000000800000000000000000000000000000000000000000000000000000000000000002020d00000000000000000000000000000000000000000000000000000000000000000000000000000000000000000000000000000000000000000000000000020000000000000000000000000000000000000000000000000000000000000040000000000000000000000000000000000000000000000000000000000000020000000000000000000000000000000000000000000000000000000000000001a000000000000000000000000000000000000000000000000000000000000000000000000000000000000000008d7f20137041334fbd7c87796f03b1999770cc5f0000000000000000000000000000000000000000000000000000000000800000000000000000000000000000000000000000000000000000000000000000003c000000000000000000000000d9be8bb0c5fa892f1ec89e66608d6b9865d65080fffffffffffffffffffffffffffffffffffffffffffffffffffffffffffffda8000000000000000000000000000000000000000000000000000000000000025800000000000000000000000000000000000000000000000a3067f6c5cf1527bb0000000000000000000000000000000000000000000000008963dd8c2c5e00010000000000000000000000000000000000000000000000008963dd8c2c5e0001000000000000000000000000ad0f3f4bec42cda68d2cd31301b3c3de3b0f50e200000000000000000000000000000000000000000000000000000000000001800000000000000000000000000000000000000000000000000000000000000000000000000000000000000000000000000000000000000000000000000000004000000000000000000000000000000000000000000000000000000000000000000000000000000000000000008d7f20137041334fbd7c87796f03b1999770cc5f",
        "nonce": "0x14",
        "chainId": "0xaa36a7"
      },
      "additionalContracts": [],
      "isFixedGasLimit": false
    }
  ],
  "receipts": [
    {
      "status": "0x1",
      "cumulativeGasUsed": "0xbc46af",
      "logs": [
        {
          "address": "0x8d7f20137041334fbd7c87796f03b1999770cc5f",
          "topics": [
            "0x8c5be1e5ebec7d5bd14f71427d1e84f3dd0314c0f7b2291e5b200ac8c7c3b925",
            "0x000000000000000000000000ad0f3f4bec42cda68d2cd31301b3c3de3b0f50e2",
            "0x000000000000000000000000000000000022d473030f116ddee9f6b43ac78ba3"
          ],
          "data": "0xffffffffffffffffffffffffffffffffffffffffffffffffffffffffffffffff",
          "blockHash": "0xbf3a4d6cd54baa6722b1e3678f2b3cfcbf970718653681a20f9e0e10ce03b249",
          "blockNumber": "0x7cd227",
          "blockTimestamp": "0x68091618",
          "transactionHash": "0xdd1f4f6c81af4f5729de267b0a18e39d7c939ae19225ffda498427ed7c619983",
          "transactionIndex": "0x62",
          "logIndex": "0x9c",
          "removed": false
        }
      ],
      "logsBloom": "0x00000000000000000400000000000000000000000000000000000000000000000000000000000000000000000000000000000000800000000000000000200000000000000000000000004000000000000000000000000800000000000000000000000000000000000000000000000000000000000100000000000000000040000000000000000000000000000000000000000000000000000000000000000000020000000000000000000000000000000000000000000000000000000000000000000000000000000000000000000004000000000000000000000000000000000010000000000000080000000000000000000000000000000002000000000000",
      "type": "0x2",
      "transactionHash": "0xdd1f4f6c81af4f5729de267b0a18e39d7c939ae19225ffda498427ed7c619983",
      "transactionIndex": "0x62",
      "blockHash": "0xbf3a4d6cd54baa6722b1e3678f2b3cfcbf970718653681a20f9e0e10ce03b249",
      "blockNumber": "0x7cd227",
      "gasUsed": "0x6875",
      "effectiveGasPrice": "0x7b3b6b028",
      "from": "0xad0f3f4bec42cda68d2cd31301b3c3de3b0f50e2",
      "to": "0x8d7f20137041334fbd7c87796f03b1999770cc5f",
      "contractAddress": null
    },
    {
      "status": "0x1",
      "cumulativeGasUsed": "0xbcb3bd",
      "logs": [
        {
          "address": "0x000000000022d473030f116ddee9f6b43ac78ba3",
          "topics": [
            "0xda9fa7c1b00402c17d0161b249b1ab8bbec047c5a52207b9c112deffd817036b",
            "0x000000000000000000000000ad0f3f4bec42cda68d2cd31301b3c3de3b0f50e2",
            "0x0000000000000000000000008d7f20137041334fbd7c87796f03b1999770cc5f",
            "0x000000000000000000000000429ba70129df741b2ca2a85bc3a2a3328e5c09b4"
          ],
          "data": "0x000000000000000000000000ffffffffffffffffffffffffffffffffffffffff0000000000000000000000000000000000000000000000000000ffffffffffff",
          "blockHash": "0xbf3a4d6cd54baa6722b1e3678f2b3cfcbf970718653681a20f9e0e10ce03b249",
          "blockNumber": "0x7cd227",
          "blockTimestamp": "0x68091618",
          "transactionHash": "0xa6cd996759449245007666dbe3b8731c0ac46a309e978d162a5e0d2a30428954",
          "transactionIndex": "0x63",
          "logIndex": "0x9d",
          "removed": false
        }
      ],
      "logsBloom": "0x00010000000000000000000000000000000000000000000000000000000000000000000000000040080000000000010000000000000000000000000000080000000040000000000080000000000000000000000000000000000000000000000000000000000000000000000000000000000000000100000000000800000000000020000000000000000000000000000000000000000000000000000000000000000000000000000000000000000000000000000000000000000000080000000000000000000000000000000000000004000000000000000040000000000000000000000000000000000000000000000000000000000000000002000000000400",
      "type": "0x2",
      "transactionHash": "0xa6cd996759449245007666dbe3b8731c0ac46a309e978d162a5e0d2a30428954",
      "transactionIndex": "0x63",
      "blockHash": "0xbf3a4d6cd54baa6722b1e3678f2b3cfcbf970718653681a20f9e0e10ce03b249",
      "blockNumber": "0x7cd227",
      "gasUsed": "0x6d0e",
      "effectiveGasPrice": "0x7b3b6b028",
      "from": "0xad0f3f4bec42cda68d2cd31301b3c3de3b0f50e2",
      "to": "0x000000000022d473030f116ddee9f6b43ac78ba3",
      "contractAddress": null
    },
    {
      "status": "0x1",
      "cumulativeGasUsed": "0xbfe68d",
      "logs": [
        {
          "address": "0x429ba70129df741b2ca2a85bc3a2a3328e5c09b4",
          "topics": [
            "0xddf252ad1be2c89b69c2b068fc378daa952ba7f163c4a11628f55a4df523b3ef",
            "0x0000000000000000000000000000000000000000000000000000000000000000",
            "0x000000000000000000000000ad0f3f4bec42cda68d2cd31301b3c3de3b0f50e2",
            "0x0000000000000000000000000000000000000000000000000000000000002dc2"
          ],
          "data": "0x",
          "blockHash": "0xbf3a4d6cd54baa6722b1e3678f2b3cfcbf970718653681a20f9e0e10ce03b249",
          "blockNumber": "0x7cd227",
          "blockTimestamp": "0x68091618",
          "transactionHash": "0x6c4e73f101c48a43669ed1a06fbaf9b22ffb9345faa644fea35a5bd8e72f843f",
          "transactionIndex": "0x64",
          "logIndex": "0x9e",
          "removed": false
        },
        {
          "address": "0xe03a1074c86cfedd5c142c4f04f1a1536e203543",
          "topics": [
            "0xf208f4912782fd25c7f114ca3723a2d5dd6f3bcc3ac8db5af63baa85f711d5ec",
            "0xc1fcb31353e0b2ea80c7b901570ee535074df25fe49d9fb4179117380855cb73",
            "0x000000000000000000000000429ba70129df741b2ca2a85bc3a2a3328e5c09b4"
          ],
          "data": "0xfffffffffffffffffffffffffffffffffffffffffffffffffffffffffffffda8000000000000000000000000000000000000000000000000000000000000025800000000000000000000000000000000000000000000000a3067f6c5cf1527bb0000000000000000000000000000000000000000000000000000000000002dc2",
          "blockHash": "0xbf3a4d6cd54baa6722b1e3678f2b3cfcbf970718653681a20f9e0e10ce03b249",
          "blockNumber": "0x7cd227",
          "blockTimestamp": "0x68091618",
          "transactionHash": "0x6c4e73f101c48a43669ed1a06fbaf9b22ffb9345faa644fea35a5bd8e72f843f",
          "transactionIndex": "0x64",
          "logIndex": "0x9f",
          "removed": false
        },
        {
          "address": "0x8d7f20137041334fbd7c87796f03b1999770cc5f",
          "topics": [
            "0xddf252ad1be2c89b69c2b068fc378daa952ba7f163c4a11628f55a4df523b3ef",
            "0x000000000000000000000000ad0f3f4bec42cda68d2cd31301b3c3de3b0f50e2",
            "0x000000000000000000000000e03a1074c86cfedd5c142c4f04f1a1536e203543"
          ],
          "data": "0x00000000000000000000000000000000000000000000000012252378644f69c1",
          "blockHash": "0xbf3a4d6cd54baa6722b1e3678f2b3cfcbf970718653681a20f9e0e10ce03b249",
          "blockNumber": "0x7cd227",
          "blockTimestamp": "0x68091618",
          "transactionHash": "0x6c4e73f101c48a43669ed1a06fbaf9b22ffb9345faa644fea35a5bd8e72f843f",
          "transactionIndex": "0x64",
          "logIndex": "0xa0",
          "removed": false
        }
      ],
      "logsBloom": "0x00000000000000000400001000000000000000800000000000000000080000000000000000000040080000000000000000000100000000000000000000000000000000200000000000000008000000000000000000000000000000000000000000000000020000000000000080000810000000000100100000000810000040008000000001000000000010000000000000001000000000000000000000000000200004000000000000000000000000000000000000400000000000000000000000000002000000000000000000000004000000000000000000001000000020001000000000000000080000000000000004000000000000000002000000000000",
      "type": "0x2",
      "transactionHash": "0x6c4e73f101c48a43669ed1a06fbaf9b22ffb9345faa644fea35a5bd8e72f843f",
      "transactionIndex": "0x64",
      "blockHash": "0xbf3a4d6cd54baa6722b1e3678f2b3cfcbf970718653681a20f9e0e10ce03b249",
      "blockNumber": "0x7cd227",
      "gasUsed": "0x332d0",
      "effectiveGasPrice": "0x7b3b6b028",
      "from": "0xad0f3f4bec42cda68d2cd31301b3c3de3b0f50e2",
      "to": "0x429ba70129df741b2ca2a85bc3a2a3328e5c09b4",
      "contractAddress": null
    }
  ],
  "libraries": [],
  "pending": [],
  "returns": {},
  "timestamp": 1745425945,
  "chain": 11155111,
  "commit": "fa00cee"
}