{
  "transactions": [
    {
      "hash": "0x90c9725509ef1f9ea0f590337373b758bce9e4886f261f6844696ea14f65388d",
      "transactionType": "CALL",
      "contractName": null,
      "contractAddress": "0x9b6b46e2c869aa39918db7f52f5557fe577b6eee",
      "function": "swap((address,address,uint24,int24,address),(bool,int256,uint160),(bool,bool),bytes)",
      "arguments": [
        "(0x0000000000000000000000000000000000000000, 0x8d7F20137041334FBd7c87796f03b1999770Cc5f, 8388608, 60, 0xD9bE8bB0c5Fa892F1Ec89E66608d6B9865d65080)",
        "(false, 10000000000000000, 1461446703485210103287273052203988822378723970341)",
        "(false, false)",
        "0x"
      ],
      "transaction": {
        "from": "0xad0f3f4bec42cda68d2cd31301b3c3de3b0f50e2",
        "to": "0x9b6b46e2c869aa39918db7f52f5557fe577b6eee",
        "gas": "0x2a406",
        "value": "0x0",
        "input": "0x2229d0b400000000000000000000000000000000000000000000000000000000000000000000000000000000000000008d7f20137041334fbd7c87796f03b1999770cc5f0000000000000000000000000000000000000000000000000000000000800000000000000000000000000000000000000000000000000000000000000000003c000000000000000000000000d9be8bb0c5fa892f1ec89e66608d6b9865d650800000000000000000000000000000000000000000000000000000000000000000000000000000000000000000000000000000000000000000002386f26fc10000000000000000000000000000fffd8963efd1fc6a506488495d951d5263988d250000000000000000000000000000000000000000000000000000000000000000000000000000000000000000000000000000000000000000000000000000000000000000000000000000000000000000000000000000000000000000000001600000000000000000000000000000000000000000000000000000000000000000",
        "nonce": "0x1f",
        "chainId": "0xaa36a7"
      },
      "additionalContracts": [],
      "isFixedGasLimit": false
    }
  ],
  "receipts": [
    {
      "status": "0x1",
      "cumulativeGasUsed": "0xdbbfa5",
      "logs": [
        {
          "address": "0xe03a1074c86cfedd5c142c4f04f1a1536e203543",
          "topics": [
            "0x40e9cecb9f5f1f1c5b9c97dec2917b7ee92e57ba5563708daca94dd84ad7112f",
            "0xc1fcb31353e0b2ea80c7b901570ee535074df25fe49d9fb4179117380855cb73",
            "0x0000000000000000000000009b6b46e2c869aa39918db7f52f5557fe577b6eee"
          ],
          "data": "0x000000000000000000000000000000000000000000000000002386f26fc10000ffffffffffffffffffffffffffffffffffffffffffffffffffddcd443544efe60000000000000000000000000000000000000000fa43f890a3dd62048b86a6b100000000000000000000000000000000000000000000000a4ac0eeec024e41fdfffffffffffffffffffffffffffffffffffffffffffffffffffffffffffffe3a0000000000000000000000000000000000000000000000000000000000001c2b",
          "blockHash": "0xab4aaa125424a28a32a14b866a01756e8137b73f31e5c14d9f1631cb1d0cfcfc",
          "blockNumber": "0x7ce2de",
          "blockTimestamp": "0x6809eb84",
          "transactionHash": "0x90c9725509ef1f9ea0f590337373b758bce9e4886f261f6844696ea14f65388d",
          "transactionIndex": "0x86",
          "logIndex": "0x130",
          "removed": false
        },
        {
          "address": "0x8d7f20137041334fbd7c87796f03b1999770cc5f",
          "topics": [
            "0xddf252ad1be2c89b69c2b068fc378daa952ba7f163c4a11628f55a4df523b3ef",
            "0x000000000000000000000000ad0f3f4bec42cda68d2cd31301b3c3de3b0f50e2",
            "0x000000000000000000000000e03a1074c86cfedd5c142c4f04f1a1536e203543"
          ],
          "data": "0x000000000000000000000000000000000000000000000000002232bbcabb101a",
          "blockHash": "0xab4aaa125424a28a32a14b866a01756e8137b73f31e5c14d9f1631cb1d0cfcfc",
          "blockNumber": "0x7ce2de",
          "blockTimestamp": "0x6809eb84",
          "transactionHash": "0x90c9725509ef1f9ea0f590337373b758bce9e4886f261f6844696ea14f65388d",
          "transactionIndex": "0x86",
          "logIndex": "0x131",
          "removed": false
        }
      ],
      "logsBloom": "0x00000000000000000400000000000000000000800000000000000000000000000200000000000000000000000000000000000100040000000000000008000000000000200000000000000008000000000000000000000020000000000000000000000000000000000000000080000000000000000100100000000010000040000000000000000000000010000000000000001000000000000000000000000000000000000000000000000000000000000000000000000000000000000000000000000002000000000000000000000004000000000000000800001000000000001000000000000000084000000000000000000000000000000002000000000000",
      "type": "0x2",
      "transactionHash": "0x90c9725509ef1f9ea0f590337373b758bce9e4886f261f6844696ea14f65388d",
      "transactionIndex": "0x86",
      "blockHash": "0xab4aaa125424a28a32a14b866a01756e8137b73f31e5c14d9f1631cb1d0cfcfc",
      "blockNumber": "0x7ce2de",
      "gasUsed": "0x1e96f",
      "effectiveGasPrice": "0x6ede2d5c7",
      "from": "0xad0f3f4bec42cda68d2cd31301b3c3de3b0f50e2",
      "to": "0x9b6b46e2c869aa39918db7f52f5557fe577b6eee",
      "contractAddress": null
    }
  ],
  "libraries": [],
  "pending": [],
  "returns": {},
  "timestamp": 1745480581,
  "chain": 11155111,
  "commit": "fa00cee"
}