{
  "transactions": [
    {
      "hash": "0xa228a9474f52fd949eac943dbf2909bdf7990595f2636d19929963f789070175",
      "transactionType": "CALL",
      "contractName": null,
      "contractAddress": "0x9b6b46e2c869aa39918db7f52f5557fe577b6eee",
      "function": "swap((address,address,uint24,int24,address),(bool,int256,uint160),(bool,bool),bytes)",
      "arguments": [
        "(0x0000000000000000000000000000000000000000, 0x8d7F20137041334FBd7c87796f03b1999770Cc5f, 8388608, 60, 0xD9bE8bB0c5Fa892F1Ec89E66608d6B9865d65080)",
        "(true, -10000000000000000, 4295128740)",
        "(false, false)",
        "0x"
      ],
      "transaction": {
        "from": "0xad0f3f4bec42cda68d2cd31301b3c3de3b0f50e2",
        "to": "0x9b6b46e2c869aa39918db7f52f5557fe577b6eee",
        "gas": "0x2766d",
        "value": "0x2386f26fc10000",
        "input": "0x2229d0b400000000000000000000000000000000000000000000000000000000000000000000000000000000000000008d7f20137041334fbd7c87796f03b1999770cc5f0000000000000000000000000000000000000000000000000000000000800000000000000000000000000000000000000000000000000000000000000000003c000000000000000000000000d9be8bb0c5fa892f1ec89e66608d6b9865d650800000000000000000000000000000000000000000000000000000000000000001ffffffffffffffffffffffffffffffffffffffffffffffffffdc790d903f000000000000000000000000000000000000000000000000000000000001000276a40000000000000000000000000000000000000000000000000000000000000000000000000000000000000000000000000000000000000000000000000000000000000000000000000000000000000000000000000000000000000000000001600000000000000000000000000000000000000000000000000000000000000000",
        "nonce": "0x24",
        "chainId": "0xaa36a7"
      },
      "additionalContracts": [],
      "isFixedGasLimit": false
    }
  ],
  "receipts": [
    {
      "status": "0x1",
      "cumulativeGasUsed": "0x1511623",
      "logs": [
        {
          "address": "0xe03a1074c86cfedd5c142c4f04f1a1536e203543",
          "topics": [
            "0x40e9cecb9f5f1f1c5b9c97dec2917b7ee92e57ba5563708daca94dd84ad7112f",
            "0xc1fcb31353e0b2ea80c7b901570ee535074df25fe49d9fb4179117380855cb73",
            "0x0000000000000000000000009b6b46e2c869aa39918db7f52f5557fe577b6eee"
          ],
          "data": "0xffffffffffffffffffffffffffffffffffffffffffffffffffdc790d903f00000000000000000000000000000000000000000000000000000021f2bbf1692dfb0000000000000000000000000000000000000000fa40ac3bc874072c10518e7300000000000000000000000000000000000000000000000a4ac0eeec024e41fdfffffffffffffffffffffffffffffffffffffffffffffffffffffffffffffe390000000000000000000000000000000000000000000000000000000000000064",
          "blockHash": "0xdc3c40aff3625b2b1bd695f798b5c086a5b241726fada98bf1cf5fda7f4487c1",
          "blockNumber": "0x7ce312",
          "blockTimestamp": "0x6809ee24",
          "transactionHash": "0xa228a9474f52fd949eac943dbf2909bdf7990595f2636d19929963f789070175",
          "transactionIndex": "0xc5",
          "logIndex": "0x18e",
          "removed": false
        },
        {
          "address": "0x8d7f20137041334fbd7c87796f03b1999770cc5f",
          "topics": [
            "0xddf252ad1be2c89b69c2b068fc378daa952ba7f163c4a11628f55a4df523b3ef",
            "0x000000000000000000000000e03a1074c86cfedd5c142c4f04f1a1536e203543",
            "0x000000000000000000000000ad0f3f4bec42cda68d2cd31301b3c3de3b0f50e2"
          ],
          "data": "0x0000000000000000000000000000000000000000000000000021f2bbf1692dfb",
          "blockHash": "0xdc3c40aff3625b2b1bd695f798b5c086a5b241726fada98bf1cf5fda7f4487c1",
          "blockNumber": "0x7ce312",
          "blockTimestamp": "0x6809ee24",
          "transactionHash": "0xa228a9474f52fd949eac943dbf2909bdf7990595f2636d19929963f789070175",
          "transactionIndex": "0xc5",
          "logIndex": "0x18f",
          "removed": false
        }
      ],
      "logsBloom": "0x00000000000000000400000000000000000000800000000000000000000000000200000000000000000000000000000000000100040000000000000008000000000000200000000000000008000000000000000000000020000000000000000000000000000000000000000080000000000000000100100000000010000040000000000000000000000010000000000000001000000000000000000000000000000000000000000000000000000000000000000000000000000000000000000000000002000000000000000000000004000000000000000800001000000000001000000000000000084000000000000000000000000000000002000000000000",
      "type": "0x2",
      "transactionHash": "0xa228a9474f52fd949eac943dbf2909bdf7990595f2636d19929963f789070175",
      "transactionIndex": "0xc5",
      "blockHash": "0xdc3c40aff3625b2b1bd695f798b5c086a5b241726fada98bf1cf5fda7f4487c1",
      "blockNumber": "0x7ce312",
      "gasUsed": "0x1c86c",
      "effectiveGasPrice": "0x80ba3febf",
      "from": "0xad0f3f4bec42cda68d2cd31301b3c3de3b0f50e2",
      "to": "0x9b6b46e2c869aa39918db7f52f5557fe577b6eee",
      "contractAddress": null
    }
  ],
  "libraries": [],
  "pending": [],
  "returns": {},
  "timestamp": 1745481253,
  "chain": 11155111,
  "commit": "fa00cee"
}