{
  "transactions": [
    {
      "hash": "0xeba503ea4eac5a409e8b6065eb33537142cddca110b0f029459c473038d8ffdc",
      "transactionType": "CALL",
      "contractName": null,
      "contractAddress": "0x8d7f20137041334fbd7c87796f03b1999770cc5f",
      "function": "approve(address,uint256)",
      "arguments": [
        "0x9B6b46e2c869aa39918Db7f52f5557FE577B6eEe",
        "115792089237316195423570985008687907853269984665640564039457584007913129639935"
      ],
      "transaction": {
        "from": "0xad0f3f4bec42cda68d2cd31301b3c3de3b0f50e2",
        "to": "0x8d7f20137041334fbd7c87796f03b1999770cc5f",
        "gas": "0xfbf8",
        "value": "0x0",
        "input": "0x095ea7b30000000000000000000000009b6b46e2c869aa39918db7f52f5557fe577b6eeeffffffffffffffffffffffffffffffffffffffffffffffffffffffffffffffff",
        "nonce": "0x15",
        "chainId": "0xaa36a7"
      },
      "additionalContracts": [],
      "isFixedGasLimit": false
    },
    {
      "hash": "0x4d2a0671d7f9da98f453e7b18daaed695a78e8b5bc7d76b4e8d33bb1a550d248",
      "transactionType": "CALL",
      "contractName": null,
      "contractAddress": "0x9b6b46e2c869aa39918db7f52f5557fe577b6eee",
      "function": "swap((address,address,uint24,int24,address),(bool,int256,uint160),(bool,bool),bytes)",
      "arguments": [
        "(0x0000000000000000000000000000000000000000, 0x8d7F20137041334FBd7c87796f03b1999770Cc5f, 8388608, 60, 0xD9bE8bB0c5Fa892F1Ec89E66608d6B9865d65080)",
        "(false, 10000000000000000, 1461446703485210103287273052203988822378723970341)",
        "(false, false)",
        "0x"
      ],
      "transaction": {
        "from": "0xad0f3f4bec42cda68d2cd31301b3c3de3b0f50e2",
        "to": "0x9b6b46e2c869aa39918db7f52f5557fe577b6eee",
        "gas": "0x2fc43",
        "value": "0x0",
        "input": "0x2229d0b400000000000000000000000000000000000000000000000000000000000000000000000000000000000000008d7f20137041334fbd7c87796f03b1999770cc5f0000000000000000000000000000000000000000000000000000000000800000000000000000000000000000000000000000000000000000000000000000003c000000000000000000000000d9be8bb0c5fa892f1ec89e66608d6b9865d650800000000000000000000000000000000000000000000000000000000000000000000000000000000000000000000000000000000000000000002386f26fc10000000000000000000000000000fffd8963efd1fc6a506488495d951d5263988d250000000000000000000000000000000000000000000000000000000000000000000000000000000000000000000000000000000000000000000000000000000000000000000000000000000000000000000000000000000000000000000001600000000000000000000000000000000000000000000000000000000000000000",
        "nonce": "0x16",
        "chainId": "0xaa36a7"
      },
      "additionalContracts": [],
      "isFixedGasLimit": false
    }
  ],
  "receipts": [],
  "libraries": [],
  "pending": [
    "0xeba503ea4eac5a409e8b6065eb33537142cddca110b0f029459c473038d8ffdc",
    "0x4d2a0671d7f9da98f453e7b18daaed695a78e8b5bc7d76b4e8d33bb1a550d248"
  ],
  "returns": {},
  "timestamp": 1745427486,
  "chain": 11155111,
  "commit": "fa00cee"
}