{
  "transactions": [
    {
      "hash": "0xeba503ea4eac5a409e8b6065eb33537142cddca110b0f029459c473038d8ffdc",
      "transactionType": "CALL",
      "contractName": null,
      "contractAddress": "0x8d7f20137041334fbd7c87796f03b1999770cc5f",
      "function": "approve(address,uint256)",
      "arguments": [
        "0x9B6b46e2c869aa39918Db7f52f5557FE577B6eEe",
        "115792089237316195423570985008687907853269984665640564039457584007913129639935"
      ],
      "transaction": {
        "from": "0xad0f3f4bec42cda68d2cd31301b3c3de3b0f50e2",
        "to": "0x8d7f20137041334fbd7c87796f03b1999770cc5f",
        "gas": "0xfbf8",
        "value": "0x0",
        "input": "0x095ea7b30000000000000000000000009b6b46e2c869aa39918db7f52f5557fe577b6eeeffffffffffffffffffffffffffffffffffffffffffffffffffffffffffffffff",
        "nonce": "0x15",
        "chainId": "0xaa36a7"
      },
      "additionalContracts": [],
      "isFixedGasLimit": false
    },
    {
      "hash": "0x4d2a0671d7f9da98f453e7b18daaed695a78e8b5bc7d76b4e8d33bb1a550d248",
      "transactionType": "CALL",
      "contractName": null,
      "contractAddress": "0x9b6b46e2c869aa39918db7f52f5557fe577b6eee",
      "function": "swap((address,address,uint24,int24,address),(bool,int256,uint160),(bool,bool),bytes)",
      "arguments": [
        "(0x0000000000000000000000000000000000000000, 0x8d7F20137041334FBd7c87796f03b1999770Cc5f, 8388608, 60, 0xD9bE8bB0c5Fa892F1Ec89E66608d6B9865d65080)",
        "(false, 10000000000000000, 1461446703485210103287273052203988822378723970341)",
        "(false, false)",
        "0x"
      ],
      "transaction": {
        "from": "0xad0f3f4bec42cda68d2cd31301b3c3de3b0f50e2",
        "to": "0x9b6b46e2c869aa39918db7f52f5557fe577b6eee",
        "gas": "0x2fc43",
        "value": "0x0",
        "input": "0x2229d0b400000000000000000000000000000000000000000000000000000000000000000000000000000000000000008d7f20137041334fbd7c87796f03b1999770cc5f0000000000000000000000000000000000000000000000000000000000800000000000000000000000000000000000000000000000000000000000000000003c000000000000000000000000d9be8bb0c5fa892f1ec89e66608d6b9865d650800000000000000000000000000000000000000000000000000000000000000000000000000000000000000000000000000000000000000000002386f26fc10000000000000000000000000000fffd8963efd1fc6a506488495d951d5263988d250000000000000000000000000000000000000000000000000000000000000000000000000000000000000000000000000000000000000000000000000000000000000000000000000000000000000000000000000000000000000000000001600000000000000000000000000000000000000000000000000000000000000000",
        "nonce": "0x16",
        "chainId": "0xaa36a7"
      },
      "additionalContracts": [],
      "isFixedGasLimit": false
    }
  ],
  "receipts": [
    {
      "status": "0x1",
      "cumulativeGasUsed": "0x16f60f3",
      "logs": [
        {
          "address": "0x8d7f20137041334fbd7c87796f03b1999770cc5f",
          "topics": [
            "0x8c5be1e5ebec7d5bd14f71427d1e84f3dd0314c0f7b2291e5b200ac8c7c3b925",
            "0x000000000000000000000000ad0f3f4bec42cda68d2cd31301b3c3de3b0f50e2",
            "0x0000000000000000000000009b6b46e2c869aa39918db7f52f5557fe577b6eee"
          ],
          "data": "0xffffffffffffffffffffffffffffffffffffffffffffffffffffffffffffffff",
          "blockHash": "0x32d29ce3879fe48a003e2c5e5b0c0b2ff7357e20a2a69aa1341e64e619555604",
          "blockNumber": "0x7cd2a1",
          "blockTimestamp": "0x68091c18",
          "transactionHash": "0xeba503ea4eac5a409e8b6065eb33537142cddca110b0f029459c473038d8ffdc",
          "transactionIndex": "0xde",
          "logIndex": "0x20d",
          "removed": false
        }
      ],
      "logsBloom": "0x00000000000000000400000000000000000000000000000000000000000000000200000000000000000000000000000000000000000000000000000008200000000000000000000000000000000000000000000000000000000000000000000000000000000000000000000000000000000000000100000000000000000040000000000000000000000000000000000000000000000000000000000000000000020000000000000000000000000000000000000000000000000000000000000000000000000000000000000000000004000000000000000800000000000000000010000000000000080000000000000000000000000000000002000000000000",
      "type": "0x2",
      "transactionHash": "0xeba503ea4eac5a409e8b6065eb33537142cddca110b0f029459c473038d8ffdc",
      "transactionIndex": "0xde",
      "blockHash": "0x32d29ce3879fe48a003e2c5e5b0c0b2ff7357e20a2a69aa1341e64e619555604",
      "blockNumber": "0x7cd2a1",
      "gasUsed": "0xb66d",
      "effectiveGasPrice": "0x913a036f9",
      "from": "0xad0f3f4bec42cda68d2cd31301b3c3de3b0f50e2",
      "to": "0x8d7f20137041334fbd7c87796f03b1999770cc5f",
      "contractAddress": null
    },
    {
      "status": "0x1",
      "cumulativeGasUsed": "0x1718a43",
      "logs": [
        {
          "address": "0xe03a1074c86cfedd5c142c4f04f1a1536e203543",
          "topics": [
            "0x40e9cecb9f5f1f1c5b9c97dec2917b7ee92e57ba5563708daca94dd84ad7112f",
            "0xc1fcb31353e0b2ea80c7b901570ee535074df25fe49d9fb4179117380855cb73",
            "0x0000000000000000000000009b6b46e2c869aa39918db7f52f5557fe577b6eee"
          ],
          "data": "0x000000000000000000000000000000000000000000000000002386f26fc10000ffffffffffffffffffffffffffffffffffffffffffffffffffde0e1f7bc3f4b50000000000000000000000000000000000000000fa3a67bebccd10b76843f1e700000000000000000000000000000000000000000000000a4ac0eeec024e41fdfffffffffffffffffffffffffffffffffffffffffffffffffffffffffffffe370000000000000000000000000000000000000000000000000000000000000064",
          "blockHash": "0x32d29ce3879fe48a003e2c5e5b0c0b2ff7357e20a2a69aa1341e64e619555604",
          "blockNumber": "0x7cd2a1",
          "blockTimestamp": "0x68091c18",
          "transactionHash": "0x4d2a0671d7f9da98f453e7b18daaed695a78e8b5bc7d76b4e8d33bb1a550d248",
          "transactionIndex": "0xdf",
          "logIndex": "0x20e",
          "removed": false
        },
        {
          "address": "0x8d7f20137041334fbd7c87796f03b1999770cc5f",
          "topics": [
            "0xddf252ad1be2c89b69c2b068fc378daa952ba7f163c4a11628f55a4df523b3ef",
            "0x000000000000000000000000ad0f3f4bec42cda68d2cd31301b3c3de3b0f50e2",
            "0x000000000000000000000000e03a1074c86cfedd5c142c4f04f1a1536e203543"
          ],
          "data": "0x0000000000000000000000000000000000000000000000000021f1e0843c0b4b",
          "blockHash": "0x32d29ce3879fe48a003e2c5e5b0c0b2ff7357e20a2a69aa1341e64e619555604",
          "blockNumber": "0x7cd2a1",
          "blockTimestamp": "0x68091c18",
          "transactionHash": "0x4d2a0671d7f9da98f453e7b18daaed695a78e8b5bc7d76b4e8d33bb1a550d248",
          "transactionIndex": "0xdf",
          "logIndex": "0x20f",
          "removed": false
        }
      ],
      "logsBloom": "0x00000000000000000400000000000000000000800000000000000000000000000200000000000000000000000000000000000100040000000000000008000000000000200000000000000008000000000000000000000020000000000000000000000000000000000000000080000000000000000100100000000010000040000000000000000000000010000000000000001000000000000000000000000000000000000000000000000000000000000000000000000000000000000000000000000002000000000000000000000004000000000000000800001000000000001000000000000000084000000000000000000000000000000002000000000000",
      "type": "0x2",
      "transactionHash": "0x4d2a0671d7f9da98f453e7b18daaed695a78e8b5bc7d76b4e8d33bb1a550d248",
      "transactionIndex": "0xdf",
      "blockHash": "0x32d29ce3879fe48a003e2c5e5b0c0b2ff7357e20a2a69aa1341e64e619555604",
      "blockNumber": "0x7cd2a1",
      "gasUsed": "0x22950",
      "effectiveGasPrice": "0x913a036f9",
      "from": "0xad0f3f4bec42cda68d2cd31301b3c3de3b0f50e2",
      "to": "0x9b6b46e2c869aa39918db7f52f5557fe577b6eee",
      "contractAddress": null
    }
  ],
  "libraries": [],
  "pending": [],
  "returns": {},
  "timestamp": 1745427505,
  "chain": 11155111,
  "commit": "fa00cee"
}