{
  "transactions": [
    {
      "hash": "0xd8aa993ee91d6284f707e4b72704a6e10b6fb8982e7030b8dc946171abef3e92",
      "transactionType": "CALL",
      "contractName": null,
      "contractAddress": "0x8d7f20137041334fbd7c87796f03b1999770cc5f",
      "function": "approve(address,uint256)",
      "arguments": [
        "0x9B6b46e2c869aa39918Db7f52f5557FE577B6eEe",
        "115792089237316195423570985008687907853269984665640564039457584007913129639935"
      ],
      "transaction": {
        "from": "0xad0f3f4bec42cda68d2cd31301b3c3de3b0f50e2",
        "to": "0x8d7f20137041334fbd7c87796f03b1999770cc5f",
        "gas": "0x991c",
        "value": "0x0",
        "input": "0x095ea7b30000000000000000000000009b6b46e2c869aa39918db7f52f5557fe577b6eeeffffffffffffffffffffffffffffffffffffffffffffffffffffffffffffffff",
        "nonce": "0x1a",
        "chainId": "0xaa36a7"
      },
      "additionalContracts": [],
      "isFixedGasLimit": false
    },
    {
      "hash": "0x4ecc21d602d34903bb194d41755b2cbb7f3f00b9a3ac2462af248f4760bbecf7",
      "transactionType": "CALL",
      "contractName": null,
      "contractAddress": "0x9b6b46e2c869aa39918db7f52f5557fe577b6eee",
      "function": "swap((address,address,uint24,int24,address),(bool,int256,uint160),(bool,bool),bytes)",
      "arguments": [
        "(0x0000000000000000000000000000000000000000, 0x8d7F20137041334FBd7c87796f03b1999770Cc5f, 8388608, 60, 0xD9bE8bB0c5Fa892F1Ec89E66608d6B9865d65080)",
        "(true, -1000000000000000, 4295128740)",
        "(false, false)",
        "0x"
      ],
      "transaction": {
        "from": "0xad0f3f4bec42cda68d2cd31301b3c3de3b0f50e2",
        "to": "0x9b6b46e2c869aa39918db7f52f5557fe577b6eee",
        "gas": "0x2d2c2",
        "value": "0x38d7ea4c68000",
        "input": "0x2229d0b400000000000000000000000000000000000000000000000000000000000000000000000000000000000000008d7f20137041334fbd7c87796f03b1999770cc5f0000000000000000000000000000000000000000000000000000000000800000000000000000000000000000000000000000000000000000000000000000003c000000000000000000000000d9be8bb0c5fa892f1ec89e66608d6b9865d650800000000000000000000000000000000000000000000000000000000000000001fffffffffffffffffffffffffffffffffffffffffffffffffffc72815b39800000000000000000000000000000000000000000000000000000000001000276a40000000000000000000000000000000000000000000000000000000000000000000000000000000000000000000000000000000000000000000000000000000000000000000000000000000000000000000000000000000000000000000001600000000000000000000000000000000000000000000000000000000000000000",
        "nonce": "0x1b",
        "chainId": "0xaa36a7"
      },
      "additionalContracts": [],
      "isFixedGasLimit": false
    }
  ],
  "receipts": [
    {
      "status": "0x1",
      "cumulativeGasUsed": "0x119eee0",
      "logs": [
        {
          "address": "0x8d7f20137041334fbd7c87796f03b1999770cc5f",
          "topics": [
            "0x8c5be1e5ebec7d5bd14f71427d1e84f3dd0314c0f7b2291e5b200ac8c7c3b925",
            "0x000000000000000000000000ad0f3f4bec42cda68d2cd31301b3c3de3b0f50e2",
            "0x0000000000000000000000009b6b46e2c869aa39918db7f52f5557fe577b6eee"
          ],
          "data": "0xffffffffffffffffffffffffffffffffffffffffffffffffffffffffffffffff",
          "blockHash": "0xd4cb6d741c48cc44f1b3cd882439fa61ee4dff58bc47cdc4bcd3fe66b01e9750",
          "blockNumber": "0x7ce2b5",
          "blockTimestamp": "0x6809e95c",
          "transactionHash": "0xd8aa993ee91d6284f707e4b72704a6e10b6fb8982e7030b8dc946171abef3e92",
          "transactionIndex": "0xb0",
          "logIndex": "0x147",
          "removed": false
        }
      ],
      "logsBloom": "0x00000000000000000400000000000000000000000000000000000000000000000200000000000000000000000000000000000000000000000000000008200000000000000000000000000000000000000000000000000000000000000000000000000000000000000000000000000000000000000100000000000000000040000000000000000000000000000000000000000000000000000000000000000000020000000000000000000000000000000000000000000000000000000000000000000000000000000000000000000004000000000000000800000000000000000010000000000000080000000000000000000000000000000002000000000000",
      "type": "0x2",
      "transactionHash": "0xd8aa993ee91d6284f707e4b72704a6e10b6fb8982e7030b8dc946171abef3e92",
      "transactionIndex": "0xb0",
      "blockHash": "0xd4cb6d741c48cc44f1b3cd882439fa61ee4dff58bc47cdc4bcd3fe66b01e9750",
      "blockNumber": "0x7ce2b5",
      "gasUsed": "0x68b1",
      "effectiveGasPrice": "0x680344d35",
      "from": "0xad0f3f4bec42cda68d2cd31301b3c3de3b0f50e2",
      "to": "0x8d7f20137041334fbd7c87796f03b1999770cc5f",
      "contractAddress": null
    },
    {
      "status": "0x1",
      "cumulativeGasUsed": "0x11bfa24",
      "logs": [
        {
          "address": "0xe03a1074c86cfedd5c142c4f04f1a1536e203543",
          "topics": [
            "0x40e9cecb9f5f1f1c5b9c97dec2917b7ee92e57ba5563708daca94dd84ad7112f",
            "0xc1fcb31353e0b2ea80c7b901570ee535074df25fe49d9fb4179117380855cb73",
            "0x0000000000000000000000009b6b46e2c869aa39918db7f52f5557fe577b6eee"
          ],
          "data": "0xfffffffffffffffffffffffffffffffffffffffffffffffffffc72815b398000000000000000000000000000000000000000000000000000000364f1928a2d830000000000000000000000000000000000000000fa3d5fa6b73621ab957d9d3e00000000000000000000000000000000000000000000000a4ac0eeec024e41fdfffffffffffffffffffffffffffffffffffffffffffffffffffffffffffffe380000000000000000000000000000000000000000000000000000000000000064",
          "blockHash": "0xd4cb6d741c48cc44f1b3cd882439fa61ee4dff58bc47cdc4bcd3fe66b01e9750",
          "blockNumber": "0x7ce2b5",
          "blockTimestamp": "0x6809e95c",
          "transactionHash": "0x4ecc21d602d34903bb194d41755b2cbb7f3f00b9a3ac2462af248f4760bbecf7",
          "transactionIndex": "0xb1",
          "logIndex": "0x148",
          "removed": false
        },
        {
          "address": "0x8d7f20137041334fbd7c87796f03b1999770cc5f",
          "topics": [
            "0xddf252ad1be2c89b69c2b068fc378daa952ba7f163c4a11628f55a4df523b3ef",
            "0x000000000000000000000000e03a1074c86cfedd5c142c4f04f1a1536e203543",
            "0x000000000000000000000000ad0f3f4bec42cda68d2cd31301b3c3de3b0f50e2"
          ],
          "data": "0x000000000000000000000000000000000000000000000000000364f1928a2d83",
          "blockHash": "0xd4cb6d741c48cc44f1b3cd882439fa61ee4dff58bc47cdc4bcd3fe66b01e9750",
          "blockNumber": "0x7ce2b5",
          "blockTimestamp": "0x6809e95c",
          "transactionHash": "0x4ecc21d602d34903bb194d41755b2cbb7f3f00b9a3ac2462af248f4760bbecf7",
          "transactionIndex": "0xb1",
          "logIndex": "0x149",
          "removed": false
        }
      ],
      "logsBloom": "0x00000000000000000400000000000000000000800000000000000000000000000200000000000000000000000000000000000100040000000000000008000000000000200000000000000008000000000000000000000020000000000000000000000000000000000000000080000000000000000100100000000010000040000000000000000000000010000000000000001000000000000000000000000000000000000000000000000000000000000000000000000000000000000000000000000002000000000000000000000004000000000000000800001000000000001000000000000000084000000000000000000000000000000002000000000000",
      "type": "0x2",
      "transactionHash": "0x4ecc21d602d34903bb194d41755b2cbb7f3f00b9a3ac2462af248f4760bbecf7",
      "transactionIndex": "0xb1",
      "blockHash": "0xd4cb6d741c48cc44f1b3cd882439fa61ee4dff58bc47cdc4bcd3fe66b01e9750",
      "blockNumber": "0x7ce2b5",
      "gasUsed": "0x20b44",
      "effectiveGasPrice": "0x680344d35",
      "from": "0xad0f3f4bec42cda68d2cd31301b3c3de3b0f50e2",
      "to": "0x9b6b46e2c869aa39918db7f52f5557fe577b6eee",
      "contractAddress": null
    }
  ],
  "libraries": [],
  "pending": [],
  "returns": {},
  "timestamp": 1745480028,
  "chain": 11155111,
  "commit": "fa00cee"
}